{
  "transactions": [
    {
      "hash": "0x5999c609325440ccc9aef16270278eca42f4a1f06b2266f064639b806be64b37",
      "transactionType": "CALL",
      "contractName": null,
      "contractAddress": "0xb73242850526bd0bc9a115dec75a1354888de8af",
      "function": "unlock(bytes16)",
      "arguments": [
        "0x9204e729277fcfddbf6e488032245fef00000000000000000000000000000000"
      ],
      "transaction": {
        "from": "0x58e9f782fa7eba1353eae727c0fcf905805cb4f3",
        "to": "0xb73242850526bd0bc9a115dec75a1354888de8af",
        "gas": "0x8963",
        "value": "0x0",
        "input": "0xe1afb08c9204e729277fcfddbf6e488032245fef00000000000000000000000000000000",
        "nonce": "0x1",
        "chainId": "0x13882"
      },
      "additionalContracts": [],
      "isFixedGasLimit": false
    }
  ],
  "receipts": [
    {
      "status": "0x1",
      "cumulativeGasUsed": "0x15fa34",
      "logs": [
        {
          "address": "0x0000000000000000000000000000000000001010",
          "topics": [
            "0x4dfe1bbbcf077ddc3e01291eea2d5c70c2b422b415d95645b9adcfd678cb1d63",
            "0x0000000000000000000000000000000000000000000000000000000000001010",
            "0x00000000000000000000000058e9f782fa7eba1353eae727c0fcf905805cb4f3",
            "0x000000000000000000000000915a2284d28bd93de7d6f31173b981204bb666e6"
          ],
          "data": "0x0000000000000000000000000000000000000000000000000000180f474ffb0000000000000000000000000000000000000000000000000002c58d834933845300000000000000000000000000000000000000000000016a710a95f6cfea8b4400000000000000000000000000000000000000000000000002c5757401e3895300000000000000000000000000000000000000000000016a710aae06173a8644",
          "blockHash": "0xb7c050ec67d790e9bdb015c5668864953b7b9a9c0acec53d574ea9e5c083368f",
          "blockNumber": "0x70697a",
          "transactionHash": "0x5999c609325440ccc9aef16270278eca42f4a1f06b2266f064639b806be64b37",
          "transactionIndex": "0x4",
          "logIndex": "0x2b",
          "removed": false
        }
      ],
      "logsBloom": "0x00000000000000000010000000000000000000000000000000000000000000000000000000200000000000000000000000008000000000000000000000000000000000000400000000000000000000800000000000000000000100000000000000000000000000000000000000000000000000000000000080000000000000000000000000000000000000000000000000000000000000000000000000000000200000000000000000000000000000000000000000000000000000000000004000000000000000000001000000000000000002000000000000100000000000000000000000000000000000000000000000000000400000000000000000100080",
      "type": "0x2",
      "transactionHash": "0x5999c609325440ccc9aef16270278eca42f4a1f06b2266f064639b806be64b37",
      "transactionIndex": "0x4",
      "blockHash": "0xb7c050ec67d790e9bdb015c5668864953b7b9a9c0acec53d574ea9e5c083368f",
      "blockNumber": "0x70697a",
      "gasUsed": "0x5df1",
      "effectiveGasPrice": "0x4190ab0f",
      "from": "0x58e9f782fa7eba1353eae727c0fcf905805cb4f3",
      "to": "0xb73242850526bd0bc9a115dec75a1354888de8af",
      "contractAddress": null
    }
  ],
  "libraries": [],
  "pending": [],
  "returns": {},
  "timestamp": 1716404211,
  "chain": 80002,
  "commit": "2e9e58f"
}